:100000000C9434000C9451000C9451000C94510049
:100010000C9451000C9451000C9451000C9451001C
:100020000C9451000C9451000C9451000C949B00C2
:100030000C9451000C9451000C9451000C945100FC
:100040000C9451000C9451000C9451000C945100EC
:100050000C9451000C9451000C9451000C945100DC
:100060000C9451000C94510011241FBECFEFD8E026
:10007000DEBFCDBF11E0A0E0B1E0E0EBF1E002C0F7
:1000800005900D92A230B107D9F721E0A2E0B1E0CE
:1000900001C01D92A730B207E1F70E94D0000C9476
:1000A000D6000C9400007093010160930001883029
:1000B00050F54AB121E030E0B90102C0660F771F68
:1000C0008A95E2F7CB01942F982B9AB92BB1982FF0
:1000D000909592239BB92BE230E030930601209358
:1000E000050180930401109280008BE080938100D1
:1000F00089EF90E0909389008093880082E080935C
:100100006F00789408958E30E8F744B1885021E06C
:1001100030E0B90102C0660F771F8A95E2F7CB0184
:10012000942F982B94B925B1982F9095922395B937
:1001300025E230E0D2CF1F921FB61F9211242F93D9
:100140003F938F939F93EF93FF9380910201909140
:100150000301019690930301809302012091020113
:100160003091030180910001909101012817390716
:1001700068F090910401E0910501F0910601808101
:10018000892780831092030110920201FF91EF9161
:100190009F918F913F912F911F901FBE1F90189597
:1001A00068EE73E088E00E945300FFCFF894FFCF21
:0201B000F40158
:00000001FF
